:020000040000FA
:10000000B8780020A1220000EB63000075220000F8
:100010007522000075220000752200007522000084
:100020000000000000000000000000007D1F000034
:1000300075220000000000007522000075220000FB
:10004000D91F0000D91F0000D91F0000D91F0000D0
:10005000D91F0000D91F0000D91F0000D91F0000C0
:10006000D91F0000D91F0000D91F0000D91F0000B0
:10007000D91F0000D91F0000D91F0000D91F0000A0
:10008000D91F0000D91F0000D91F0000D91F000090
:10009000D91F0000D91F0000D91F0000D91F000080
:1000A000D91F0000D91F0000D91F0000D91F000070
:1000B000D91F0000D91F0000D91F0000D91F000060
:1000C000D91F0000D91F0000D91F0000D91F000050
:1000D000D91F0000D91F0000D91F0000D91F000040
:1000E000D91F0000D91F0000D91F0000D91F000030
:1000F000D91F0000D91F0000D91F0000D91F000020
:10010000D91F0000D91F0000D91F0000D91F00000F
:10011000D91F0000D91F0000D91F0000D91F0000FF
:10012000D91F0000D91F0000D91F0000D91F0000EF
:10013000D91F0000D91F0000D91F0000D91F0000DF
:10014000D91F0000D91F0000D91F0000D91F0000CF
:10015000D91F000053B94AB9002908BF00281CBFA5
:100160004FF0FF314FF0FF3000F00CB8ADF1080C4C
:100170006DE904CE00F008F8DDF804E0DDE90223C3
:1001800004B07047704700BF2DE9F04786468C46A3
:100190000846089E154674461946002B40F0C1805B
:1001A0008542B2FA82F245D94AB1C2F1200300FA7F
:1001B00002FC954094402EFA03F343EA0C0C4FEAFC
:1001C000154EA8B2230CBCFBFEF80EFB18CC08FBA6
:1001D00000F943EA0C43994528D9EB1808F1FF3799
:1001E00004D2994502D9A8F102072B44A3EB0903D5
:1001F000A4B2B3FBFEFC0EFB1C330CFB00F044EA84
:100200000344A04214D92C190CF1FF3304D2A042AC
:1002100002D9ACF102032C44241A43EA07401EB170
:10022000D440002334607360BDE8F0874746DDE7C3
:100230006346F1E792BB431B01214FEA154EAFB273
:10024000200CB3FBFEFC0EFB1C330CFB07F840EA52
:100250000343984561D9EB180CF1FF3004D298455F
:1002600002D9ACF102002B44A3EB0803A4B2B3FB08
:10027000FEFC0EFB1C330CFB07F744EA0344A742C9
:100280004DD92C190CF1FF3304D2A74202D9ACF19D
:1002900002032C44E41B43EA0040C0E7C2F1200300
:1002A0009540944020FA03F12EFA03F34FEA154EDD
:1002B0009040AFB20343B1FBFEFC0EFB1C10190CC7
:1002C0000CFB07F841EA0041884522D969180CF176
:1002D000FF3004D2884502D9ACF102002944A1EBD9
:1002E00008019BB2B1FBFEFC0EFB1C110CFB07F7D7
:1002F00043EA01439F420ED9EB180CF1FF3104D2BF
:100300009F4202D9ACF102012B44DB1B41EA0041C0
:1003100093E76046E3E76146F7E76046A4E7634694
:10032000B8E7834206D916B9002108467CE7C6E93A
:1003300000E0F9E7B3FA83F78FB9834201D372453E
:1003400008D8BEEB020460EB030301209C461EB9F3
:10035000002169E73846FAE7C6E9004CF8E7C7F13B
:10036000200CBB400EFA07F522FA0CF42EFA0CF121
:10037000BA401C4320FA0CF3B8404FEA1449014339
:100380001FFA84FEB3FBF9F809FB18300B0C08FBCD
:100390000EFA43EA00439A4540D9E31808F1FF30CA
:1003A00004D29A4502D9A8F102002344A3EB0A0320
:1003B00089B2B3FBF9F809FB183308FB0EFE41EADA
:1003C00003418E452CD9611808F1FF3304D28E45C4
:1003D00002D9A8F10203214443EA0040A1EB0E0137
:1003E000A0FB02984145CE46434602D306D14D4577
:1003F00004D20138B9EB020E68EB0403002EA7D03B
:10040000B5EB0E0261EB030101FA0CFC22FA07F3D3
:10041000F9404CEA0303C6E9003199E74046C5E7D5
:100420004346D9E7F0B53A4B3A4A4921C2F800367B
:10043000C2F80436C2F80836C2F80C36C2F81036D4
:10044000C2F81436C2F81836C2F81C3602F58052CB
:10045000C2F800363048C2F8043685B0C2F8083613
:10046000C2F80C36C2F81036C2F81436C2F8183684
:10047000C2F81C3605F02EFF00F07EF801A800F04F
:1004800035FD264B1B68834204D04521244805F0E6
:1004900021FFFEE7039A4921224805F01BFF49216D
:1004A000214805F017FF4FF44041002003F0ECFA1B
:1004B000044620B145211D4805F00CFFFEE703F07E
:1004C00093FB69469DF8080000F034F8009B039DFB
:1004D0001D44019B1E8903F0BFFAAF1901F014F807
:1004E00000F0F6FF01F01EFF84F30B8884F30A8806
:1004F000AB5983F3088884F31488BFF36F8FBFF37D
:100500006F8F7B6898474521094805F0E3FEFEE7B9
:100510003546526E00800150768D0000E0210020AB
:100520008F8D0000B28D0000E18D0000068E00006E
:10053000398E0000024608B538B105480023452130
:1005400005F0C8FE6FF0150008BD0860FCE700BFAD
:100550005C8E000021B1012906D06FF015007047B4
:10056000044B53F830007047024B03EBC00358684C
:10057000704700BF388900004FF4C051014803F0B4
:10058000ADBD00BFAC2F00202DE9F04FDFF8C0B1AA
:10059000F9B038A8DDE9848916461C46869FDBF849
:1005A000005007F062FD002138A803F0ABFEB8F15F
:1005B000000F07D0B9F1000F04DD4A46414638A8C4
:1005C00007F057FD4FF0000833897289D6F80CA068
:1005D00013449A44C24544D80DA938A807F08DFDAC
:1005E00027B1202238460DA905F05AFF00232246E4
:1005F000009331464FF6FF7307A805F049FB80468C
:1006000060BB20460C9E00F0D9F9864226D84FF0F8
:10061000FF37DFF840910DF1160305AA06A907A8D8
:1006200005F084FB002819DB40F08A80BDF81660D5
:10063000102E2ED1BDF81460202E0FD13346204647
:10064000069938AA05F054FE40B9324638A90DA8DB
:1006500005F0B8FB404B1B68834217D0DBF8005015
:1006600071E0839BAAEB0809994528BF994641464A
:100670004B462046829A05F03BFE0028EED14A46C2
:10068000829938A807F0F5FCC844A3E74FF00108A9
:10069000C1E7012E35D1BDF81430202BDED820461D
:1006A000069938AA05F024FE07460028D6D19DF801
:1006B00014A0BAF1200F02D94FF0FF37ABE7D9F8F9
:1006C0000030264E0393039B9F42F5DA1DA807F0E6
:1006D000CCFC00211DA803F015FE72681DA812684D
:1006E00056F8081B07F0C5FC15A91DA807F005FD65
:1006F000524638A915A805F0ACFE00288BD001376A
:10070000E1E7202E87D17B1C85D0D9F80030BB4291
:10071000D2DDBDF81430B3F5807F9FD12046069915
:1007200038AA05F0E5FD002898D1FFB23146BDF8A2
:100730001430009738AA0DA800F012F80546BBE760
:10074000B8F1000F8AD0284679B0BDE8F08F00BF1D
:100750000420002040890000E0210020448900009E
:100760002DE9F04FDFF8D4A1ADF54D7D074629A85E
:100770001E469DF858B389469046DAF8005007F0B7
:100780002FFC0422012129A803F038FD6C4B8CAA10
:1007900053F83B4003EBCB035B6804941B6804A84D
:1007A0001C442146302306F042FA002840F0BE8067
:1007B000049B8C9A13449C4240F0B88021462BAA9B
:1007C00004A806F048FA002840F0B0800DF1B80BFC
:1007D0005A46214604A806F03EFA0390002840F04D
:1007E000A5802BA806F02EFB049A2A90944240F094
:1007F0009D80039BCDF804B01A4600932BA929A82D
:1008000007F0ABFB002840F0918029A803F00CFD15
:10081000002840F08B802BA806F014FB2A9029A812
:1008200007F0E8FB864240F08180B6F5807FDAF879
:1008300000507BD1B9F1200F78D141468CAA29A86C
:1008400003F018FD0446002870D19DF82F33BC2B0F
:100850006CD1DF2605900DF5A8790EA807F005FCF0
:1008600000210EA803F04EFD20220DF20F310EA83C
:1008700007F0FFFB042205A90EA807F0FAFB06A962
:100880000EA807F03AFC202EB046A8BF4FF0200873
:100890009DF8173048460133424606A9A6EB0806E4
:1008A0008DF8173005F0FCFD002EC144D5DC54ABAB
:1008B000184600219C468CAA067812F801EB0131FB
:1008C00086EA0E06DF2900F8016BF5D11A7802F0EE
:1008D0007F021A7013F8016B46BB0134BE2CF9D1AC
:1008E0009CF8BE30012B21D10EA807F0BEFB31468B
:1008F0000EA803F007FD082212490EA807F0B9FB65
:10090000394620220EA807F0B4FB20220DF20F2159
:100910000EA807F0AEFB06A90EA807F0EEFB2022FA
:100920000DF20F3106A805F04DFA054629A807F08B
:1009300063FB28460DF54D7DBDE8F08F04200020B7
:1009400044890000828E0000094A40000B7852F86A
:1009500020108B4209D0013052F82000834214BF8E
:100960004FF0FF304FF4C07070474FF4C0707047C5
:100970004C8900001FB50F4B0C4613F8300001F0F6
:100980000DFA50B92068102381686A46103905F0C5
:10099000AFFC28B1206805F0AAFC4FF0FF3006E05C
:1009A00010226846044905F054FD0028F2D104B035
:1009B00010BD00BF4C890000668D000013B50446D1
:1009C00005F007FA6A460146204605F048F930B1BD
:1009D0000448452105F07EFC002002B010BD0098BF
:1009E000FBE700BF8A8E00002DE9F041364B88B04E
:1009F000064600200D461C68FFF7ACFD06A9C0B2F4
:100A000001F0CCF9002858D12946FFF7A3FD2C248A
:100A100007A9C0B204FB056401F0C0F9002833D077
:100A20002C276F4306EB0708D8F81010069B11F02F
:100A3000100138D14FF480720192244A0846009286
:100A4000CDE9031122460291FFF79EFD0446204B9B
:100A5000F25906989A420CD1D8F80C20B8F8083010
:100A60009B1806D28268934203D21A4B1B68A3429A
:100A700020D035B38268002105F064FC164A452178
:100A8000164805F027FC13E0079805F076FC0746AA
:100A9000079805F02CFC631EE21C13F8011FB942F5
:100AA000BED19342F9D11DB13046069905F07BFACB
:100AB0000B4B1C68069805F01AFC204608B0BDE8F0
:100AC000F081084ADBE700BF04200020AC4700208B
:100AD0003DB8F396E0210020CD8E0000D78E0000B7
:100AE00000200020C58E00007FB50D460021044681
:100AF0002846CDE9021105F015FA28B32368194EEE
:100B0000B34203D1204603AA05F0A1F9E36AB34238
:100B100004D10121204602AA05F099F9DDE902324B
:100B2000934288BF0393039BAB60039A29462046F8
:100B300000F0D6FB0C4B1A68002A03DD57210B4846
:100B400005F0C8FB04B070BD01A9FFF713FF0198C1
:100B500005F1080105F048F9AB680198039305F029
:100B6000C6FBE2E73DB8F396442E0020FF8E00005E
:100B70002DE9F84F884691469A460026DFF88CB05A
:100B8000234D244C0B9B9E4201D300200FE00B9B76
:100B900040469F1BB7F5806F28BF4FF480671B4A04
:100BA0003B4606EB0A0105F0A3FB10B10120BDE8AE
:100BB000F88F0A993B465A464846711805F0ADFB36
:100BC0000028F3D1144BC5F800463E44C5F804464E
:100BD000C5F80846C5F80C46C5F81046C5F81446D1
:100BE000C5F81846C5F81C46C3F80046C3F80446C5
:100BF000C3F80846C3F80C46C3F81046C3F81446B9
:100C0000C3F81846C3F81C46BCE700BFE42900201F
:100C1000008001503546526E009001502DE9F041A0
:100C20000E460021A54B86B04362A54B04460365E2
:100C30000846FFF78FFC04F12001C0B201F0AEF8C6
:100C400001210020FFF786FC04F14C01C0B201F045
:100C5000A5F8204605F03CF9054668B90022204673
:100C6000114605F0DEF8054600B3002257219548ED
:100C700005F030FB0123BCE080225721924805F0AB
:100C800029FB01239D4284F85830E7D194F858306D
:100C9000042B8DF80F3000F2AF80012B00F2B380EF
:100CA00000F0C680FF2384F85830C1E0204600F0F1
:100CB0002FFA0028DED002A805F02BF901462046C5
:100CC00005F0C6F918B12A4657218048D0E702A896
:100CD00005F028F980F0010102AA2046C9B205F00A
:100CE000A0F802460028C0D102A805F01BF905466D
:100CF00060BB204602A9FFF7F7FE9DF80F3084F88D
:100D00005830033B012B06D8284600F015F910B1E6
:100D1000FF2384F858309DF80F30023B022B0BD88C
:100D2000002000F0F3F838B1FF2384F85830452153
:100D3000674805F0CFFAFEE794F85830FF2BF6D05D
:100D40000021204602AA05F06CF893E79DF80F30C9
:100D5000012B43D15F4B0192E26AE76C9A420CD1BE
:100D60000423A18E38460DEB0302194405F0C0FAA6
:100D700018B1052584F8585088E7002002F0B2FF2A
:100D8000831E022B0546F5D801212046FFF72CFED5
:100D9000514B1B68984205D0504B1B689842E8D1D4
:100DA0000125E7E7019BB3F1807FE3D97B68492107
:100DB0001D89D3F80C804A481D4405F08BFA414642
:100DC000284602F007FF0028D3D14921454805F005
:100DD00081FA3946204605F0E6F8E1E70121204690
:100DE000FFF702FE3C4B1B68984214BF05239DF899
:100DF0000F3084F8583049E7052B7FF453AF0020BB
:100E000000F09AF811E0204602A9FFF76DFE94F871
:100E10005830DA1E012A14D8002000F08DF800287E
:100E20007FF440AF002000F071F800287FF43AAF63
:100E300094F85830FF2B07D14521254805F04AFA90
:100E4000FEE7022BF4D1EDE70021012B264D0191A5
:100E500014D0204602AA04F0E4FF78B12D681022D5
:100E6000002102A805F027FBE06C05F040FA206A9B
:100E700005F03DFA284606B0BDE8F0810021204685
:100E8000FFF7B2FD144F3B689842E7D12B689842B8
:100E9000E4D0124B1B689842E0D0019B01330193D0
:100EA000019B012B00D0FEE7206A04F0D6FE3071D2
:100EB000236A5B6834603D68B360D0E7E4250020B6
:100EC000E4210020708F00002E8F00009C8F000016
:100ED000C68F00003DB8F396E021002000200020DE
:100EE000D28F0000F48F00000420002038B5064D9A
:100EF000044660220021284605F0DDFA21462846F6
:100F0000FFF78CFE38BD00BFE42D002013B5094B60
:100F100001A913F8300000F041FF48B9019805F02D
:100F200032FE0446019805F0E2F9204602B010BDF9
:100F30000124FAE7548900001FB50F4B01A913F8EB
:100F4000300000F02BFFA8B9019802A902F074FE4E
:100F5000044668B99DF80B30032B03D1019805F0C6
:100F6000E0FD0446019805F0C2F9204604B010BD2A
:100F70000124F7E70124F8E7548900002DE9F34143
:100F800006460C4617461D460BB9002628E01846B3
:100F900004F0C8FF0028F8D16946FFF7EBFC009881
:100FA00038B90124009805F0A2F9204602B0BDE846
:100FB000F08101A904F018FF0028F2D1009805F093
:100FC00096F93046019905F07FF8736A5E686B798F
:100FD000012B21D1002CD8D12B68834298BF002649
:100FE00021460020FFF7B6FA6946C0B200F0D6FEEF
:100FF0000028D6D120233A463146009805F078F9EA
:1010000004460028CDD1002DCCD03C680D4BE41A0D
:1010100018BF4FF0FF34C5E7022BB6D12B68012B68
:1010200005D98342B1D8B4FA84F46409ADE7ACD1F0
:10103000002CD5D0012CA8D12C79023C18BF01245A
:10104000A3E700BF3DB8F3962DE9F04F07460C46E5
:1010500085B0014600201646FFF776FC051E50DBE2
:101060003846E46D04F0B5FE5FFA84F94FF0000AEB
:101070004FF0010B4FF0FF346B1E09FB03089DB9C5
:10108000BAF1010F03DD4521204805F023F9631C67
:1010900006D07F2C2ADC40F2011301343460B38087
:1010A000284605B0BDE8F08F6B1E00934146012332
:1010B00038460DF10F0205F01BF9031E019322DBE8
:1010C000012238460DF10F0105F0C6FC019B40B12D
:1010D0005B4501D00AF1010A9B46009DA8EB090877
:1010E000CDE7B4F1FF3F08BF2C46F5E70223803C73
:1010F0007371631004F001040133013433603471FF
:10110000CEE70725CCE70125CAE700BF1490000011
:1011100038B5816A426D914208D0531C8B4205D08C
:101120005721134805F0D6F8002038BD80291CD976
:1011300057211048F6E7446A056D04EBC30405EB3C
:10114000C30564686D68AC4202D057210A48E9E7DC
:1011500001339A42EFD1914205D9436A03EBC203AE
:101160005B68A342F1D10120DFE700231C46F0E7D2
:10117000379000006F9000009E90000000B589B08D
:10118000022004A905F0DAFC9DF81020012A41D0C4
:10119000254B2649032A08BF0B469DF813204921F9
:1011A00002929DF81220224801929DF8112000928F
:1011B000204A05F08FF8052006A905F0BFFC9DF830
:1011C0001820012A28D0184B1849032A08BF0B46BB
:1011D0009DF81B20492102929DF81A201448019283
:1011E0009DF819200092144A05F074F89DF810300B
:1011F000012B13D19DF81230032B0FD19DF818301D
:10120000012B0BD00D48492105F064F8022009B0EC
:101210005DF804FB0A4BC0E7094BD9E709484921AF
:1012200005F058F80020F2E7CA900000D3900000C3
:10123000E7900000D990000028910000389100004C
:10124000CE9000005791000070B54B6814461E4ABE
:1012500003F0FF23934206460D4686B02FD10B685C
:10126000012B2CD1204604A902F0E6FC9DF81020A9
:10127000012A26D0154B1649032A08BF0B469DF8B4
:101280001320492102929DF81220124801929DF8E4
:1012900011200092104A05F01DF89DF81030032B24
:1012A0000DD12146304604F07EFE204605F039FC83
:1012B0002046A96804F0A6FD204602F09DFC06B079
:1012C00070BD064BDBE700BF00010004CA900000C0
:1012D000D3900000E790000028910000CE9000001D
:1012E0002DE9F04F1646054689B00C467448492151
:1012F00004F0F0FF3146284604F0E6FE6B6A8246B1
:1013000020465E6804F00EFEE8B1E86D04F05CFD76
:101310000023AF6A013F3344834201D2013FFAE721
:10132000BA4510D35721674804F0D4FF07FB06F3F2
:1013300057210AFB0662644804F0CCFF0123E371E5
:1013400009B0BDE8F08F06A9022000F027FD07A92B
:10135000052000F023FD21462846079AFFF774FF79
:101360006379012B4BD15746DFF860B141E0226829
:10137000C2F1010353449F423AD86B6A012A1968AB
:1013800053F8370003EBC70353F8083CA0EB0109FF
:10139000A3EB0103049311D1079B0393E368022B92
:1013A00008D04146284604F0FEFD22464146284624
:1013B00004F02FFE2846039904F0F5FD3246494615
:1013C000404604F0EEFD049B424641462846CDE9E6
:1013D0000096FFF7CDFB2146284604F0B0FD2368B8
:1013E0000133236020B1DBF800300133CBF800304B
:1013F000013FDDF81880002FB9D1012323600223BB
:1014000001276371BA45DDF8189006D2484604F00A
:101410006EFF079804F06BFF92E723689F424DD35D
:101420006A6AFB0052F83710083B04911168DDF836
:101430001CB00391D1582A6DD0581368A0EB030853
:101440002379012B38D1039B3246C91A48460591AE
:1014500004F0A7FD059943464A460091284659469F
:101460000196FFF785FB2146284604F068FD02231C
:10147000237118B1154A136801331360324641468F
:10148000584604F08EFDDDE9032349469B1A2846A1
:101490005A46CDE90086FFF76BFB2146284604F04B
:1014A0004EFD2368013323600123237130B1074AC5
:1014B00013680133136001E0022BDFD00137A1E78D
:1014C0006E91000097910000C6910000442E00200C
:1014D000BFF36F8F72B600234FF0FF30094A03F15C
:1014E00020010133102B42F82100F8D100234FF0E6
:1014F000FF30044A03F160010133102B42F8210050
:10150000F8D1704700E100E038B501224FF0FF3418
:1015100000251A4B29465A60C3F84843C3F80843CC
:1015200003F580535A60C3F84843C3F80843A3F552
:101530005043C3F800558022C3F80843104804F014
:10154000BAFF802229460F4804F0B5FF0E4B8022D7
:10155000C3F800552946C3F808430C4804F0ABFF14
:10156000802229460A4804F0A6FF0A4BC3F8084522
:101570004FF05023C3F8084338BD00BF004001506E
:10158000808000508081005000900050809000507A
:101590008091005000700150014B1B68184700BF3C
:1015A00008200020014B1860704700BF0820002071
:1015B00007B50B46002102460091034800F014F9DC
:1015C00003B05DF804FB00BF991500002DE9F0475A
:1015D000058B04462807904611D4022905F007051B
:1015E00040F0CD80204604F09BFD78B10138218B7E
:1015F000042811D8DFE800F0C3106D85950001299B
:101600000CBF45F0100545F02005258388F31188AF
:10161000BFF36F8FBDE8F08701F0070AAA4500F01D
:10162000A6800027B9463E46A368002B00F0BD8087
:1016300041F00801218388F31188BFF36F8FA168FF
:10164000002900F0BB800D68002900F0B780334608
:1016500052462046D1F80480C047002D76D02B6832
:1016600029461D46F0E701F007035A1F012A1BD83F
:10167000002221F00701062B276889B2C4E9002265
:1016800009D13B4603E0628B013262831B68002B69
:10169000F9D141F002012046218304F041FD0028E8
:1016A0007BD041F0200177E0042B0AD121F0070123
:1016B00089B22046218304F033FD10B141F02001AE
:1016C0002183218B01F0070AAA4550D00027B94693
:1016D000AAE7236921F0070141F00601062DD3F89E
:1016E000009021832DD1B9F1000F40D041F00801C5
:1016F000218388F31188BFF36F8F20463949C8478B
:1017000029E021F00701236941F0040189B2042D89
:10171000D3F804902183E6D000274FF0040A3E4618
:1017200082E721F00701236941F0050189B2052D07
:10173000D3F808902183D6D000274FF0050A3E4603
:1017400072E700274FF0060A3E466DE72B4687E713
:10175000B9F1000FD1D14FF02003EFF3118883F3DB
:101760001288BFF36F8F238B23F008032383258B0D
:10177000EA062ED525F01003238305F007056669D8
:10178000218B002EBFF66FAF00232768C4E900331A
:1017900021F0070141F001012183218B4FF0000965
:1017A00001F0070AAA457FF43FAF002F9BD041F01C
:1017B0000801218388F31188BFF36F8F002FC7D0F2
:1017C0003D68394633465246204604F0D5FC2F4644
:1017D000F4E7AB067FF51AAF25F02003238305F06D
:1017E0000705FFE6A56100002DE9F04F82464FF0A6
:1017F00000098DB01D46531E01910393039B587839
:101800005C1C252819D100204FF0FF381E464446A5
:1018100003460236029031780396392955D81F299C
:1018200014D8002900F0EF8101992520D0470199B3
:101830003078D04709F10209E0E7002800F0E381A1
:101840000199D04709F101090394D7E7A1F12002DA
:10185000192AE9D801A757F822F000BFC5180000DF
:101860002918000029180000C518000029180000D8
:101870004519000029180000291800002918000047
:101880002918000091190000C5180000291800004F
:10189000A519000051190000291800005F19000067
:1018A0007F1900007F1900007F1900007F190000D8
:1018B0007F1900007F1900007F1900007F190000C8
:1018C0007F19000008460136A5E7582900F0EB8093
:1018D000A1F16302D7B2172FA6D8172AA4D801A75F
:1018E00057F822F04D1B0000CB190000291800000A
:1018F0002918000029180000AB190000CB190000BE
:101900002918000029180000AB1900002918000050
:101910002918000029180000811A00002918000069
:1019200029180000211B000029180000CB19000015
:101930002918000029180000811A00002918000049
:10194000AB19000025200199D04709F1010955E79D
:10195000029A4FF0000802F0FE020292B3E7002C58
:101960000DDAB8F1000F0DDA029A002A00F0438177
:101970000A2224EAE47402FB0414303CA3E7B8F121
:10198000000FF5DB0A2202FB0812A2F130089AE7E9
:10199000B8F1000F55F8042B80F22F81002A80F255
:1019A0002E815442022202928DE7682903D1682BCE
:1019B00006D1482387E76C2902D16C2B00F02181E6
:1019C000002B7FF431AF0B467DE77A2B06D17529CA
:1019D00055F8046B14D14FF0000B0CE06C2BF6D0D3
:1019E0004C2BF4D1073525F00703752903F10805C1
:1019F000D3E9006B06D120283BD1854F013C09E09B
:101A00004FEAE67BBBF1000FF5DA7642814F6BEBD4
:101A10004B0B013C0DF12D0305930023049330463D
:101A200059460A220023FEF795FB059BB446303247
:101A300003F8012D5A460593049BBCF10A0F8B460F
:101A400072F1000203F1FF3106460491E7D2C3F1BF
:101A5000010B30330DEB0306B8F1000FA6F10406BD
:101A60006DDA029BD9077DD4A8EB0B03A4EB0B0422
:101A700013E02B280ABF684F684F04F1FF34C9E711
:101A800070290FD155F8042B0023FAB96FF0040325
:101A90004FF0050B614F624E053C029A920770D4DD
:101AA000A04666E078216C2B03D1002355F8042B67
:101AB00008E04C2BF9D1073525F007031D465B687C
:101AC00055F8082B232825D1880621D5554F023CEF
:101AD000002601F06001A1F1390B0DF12D0E02F08D
:101AE0000F01092988BF594430310EF8011D102A11
:101AF0004FEA121141EA03714FEA131C73F100031C
:101B000006F1FF3008D2C6F1010B06F13003A1E760
:101B1000454FDCE7414FDBE706460A466346DEE712
:101B200055F8046B304604F08DFCB8F1000F834685
:101B300002DB4045A8BFC3464FF00008374FA8EB73
:101B40000B03002B92DDA4EB0804A6E755F8043B39
:101B50004FF0010B8DF81830304F4FF0FF33013C40
:101B600006AE9AE7A046EAE7029320200199D04703
:101B7000029BB8F10108F7D524EAE472013C9144D4
:101B8000A41AB84606E0049302920199D047029A3B
:101B9000049B9046424612F8010B0028F3D11A46E6
:101BA000013A15D5002BACBFC7EB03077F425B465C
:101BB000013B15D5BBF1000FA8BF5F4426464F443B
:101BC000013E14D5002CA8BF3F1907EB080915E604
:101BD0000493029230200199D047049B029ADFE7D8
:101BE0000293019916F8010BD047029BE0E7019997
:101BF0002020D047E4E70122D5E6904663E614466C
:101C000061E64C235FE648460DB0BDE8F08F00BFAB
:101C100018930000169300001A930000D18F000063
:101C2000229300001C9300001F930000044608B597
:101C30004FF02002EFF3118382F31288BFF36F8F0E
:101C400001F00AFF204600F05BFB034804F05BFA5A
:101C500000F008F9FCE700BF2893000007B50DF17C
:101C6000070006F0E2FA114B98421CD14FF4806253
:101C70000F4B1049C3F8B8254FF40062C3F83C2558
:101C80009DF8070006F0C5FA0B499DF8070006F01D
:101C9000BBFA01209DF80730984002F06DFD00204E
:101CA00003B05DF804FB6FF00B00F9E70000AD0B2B
:101CB00000A002502CA0025028A10250054B03EBBB
:101CC0008000D0F8003223F0E04343F04053C0F8E6
:101CD0000032704700258450012208B50A4B0B4999
:101CE000C3F8002502230020C1F8D036FFF7E6FF35
:101CF0001046FFF7E3FFC1F80427C1F80429C1F833
:101D0000002B002008BD00BF001000500040005014
:101D1000052370B5144D154E2C780134B4FBF3F344
:101D200003EB8303E41A04F070FE114A137823B125
:101D300056F82430C01A072814D94FF05023D3F88E
:101D4000141141B10021C3F81411D3F814312C70CF
:101D50000CB9012313702C7804F057FE46F82400C8
:101D6000012070BD0020FCE7AD480020482E002077
:101D7000AC48002048B1054B054A1B68B3FBF2F3A1
:101D80005843044B43F00103184770473C200020A0
:101D900040420F003089000002F0D0BB70B5114BFB
:101DA0000D461C68DCB1104B196800238B4202DB26
:101DB0006FF0010070BD224612F8106B864202D00F
:101DC00014460133F2E7E06810B96FF01200F1E752
:101DD00006F0C4FB0028F8D000202C60EAE76FF082
:101DE0000C00E7E70C2000206089000070B588B087
:101DF00005460C46C0B269461646FFF7CFFF0028DD
:101E00001BDB0098C8B14368226802938368019580
:101E1000CDE903360023CDE906230593C56804F018
:101E200066FA6DB12846084901AA04F0EAFC079851
:101E300008B9059B236008B070BD6FF01500FAE784
:101E40006FF01200F7E700BF89630000014803F05C
:101E5000F3BD00BFD4890000014910220A60704719
:101E600010ED00E072B6404080F31188BFF36F8F31
:101E700001B5FFF74DFF002802D0BFF34F8F30BFF1
:101E8000BDE8014062B6BFF36F8F704772B649403C
:101E900081F3118801B5FFF73BFF002802D0BFF3A3
:101EA0004F8F20BFBDE8014080F3118862B67047B4
:101EB00040B2002807DB01234109034A00F01F005C
:101EC000834042F82130704700E100E040B2002832
:101ED0000CDB01220649430900F01F008240203339
:101EE00041F82320BFF34F8FBFF36F8F704700BFC0
:101EF00000E100E0054B420953F82220012300F0E5
:101F00001F0003FA00F01040704700BF00E100E03E
:101F100040B2002801F10101ACBF00F16040064B66
:101F20004FEA4111C9B2ABBF00F5614000F00F00AC
:101F300080F800131954704714ED00E030BFFFF72C
:101F4000FDBF00BF0B4A08B50B4B22F07F029A6021
:101F5000BFF34F8FBFF36F8FD3F8882022F4700246
:101F6000C3F8882003F002FC03F048FC00F08CF971
:101F700003F008FC0000000000ED00E01EF0040F7C
:101F80000CBFEFF30880EFF30980816911F8021CA0
:101F90000229FFD001B504F020FA01BD044608462D
:101FA00011461A46002383F30B880A4B2025A3F51C
:101FB000205686F30B8883F3098863B64FF000033D
:101FC00083F31188BFF36F8FA04785F31188BFF3A8
:101FD0006F8FFEE7B878002001B5EFF30580A0F120
:101FE00010004FEAC0000449014409C99847BDE800
:101FF00001400249084700009086000001200000CF
:10200000704700BF154B9A6A12F0007F9A6A14BF9E
:102010001E201D2012F0807F9A6A18BF1F2012F424
:10202000801F9A6A18BF022012F4002F9A6A18BF04
:10203000212012F4802F9A6A18BF222012F4003F48
:102040009A6A18BF232012F4803F9A6A18BF24208E
:102050006FEA02426FEA12429A62704700ED00E0B6
:1020600010B5194B0246986A9C6A10F4805F14BF41
:102070001720162014F4006F9C6A18BF1820A405BE
:1020800009D5986B986A000404D51AB19A6A22F4AB
:1020900000429A6219200C4B9A6A12F4806F9A6A75
:1020A00018BF1A20D2050CD49B6A13F4005F18BF26
:1020B0001C20054A936A43F47F43936200230B700C
:1020C00010BD1B20F5E700BF00ED00E010B51C4B74
:1020D0000246986A9C6A10F0100F14BF112010205D
:1020E00014F0080F9C6A18BF1220A40709D5586B7A
:1020F000986A000604D51AB19A6A22F080029A62A0
:1021000013200F4B9A6A12F0010F9A6A18BF14201D
:1021100012F0200F9A6A18BF1520D40658BF9B6A88
:10212000074B9A6A920642BF5A6A22F400525A62D8
:102130009A6A42F0FF029A6200230B7010BD00BF42
:1021400000ED00E070B5444B06465B6800258AB0A0
:10215000C3F3080385F31188BFF36F8F02F07F404C
:10216000B0F17F4F11D102F00C0008280DD01007FC
:102170004CBF0E4601250022033B8DF80720032BA0
:1021800005D8DFE803F01E5C60592E46F3E7002413
:102190009DF807309BB92022314602A804F080F94F
:1021A000099B002D53D0C3F3080222B96FEA5323D1
:1021B0006FEA43230993204602A904F00CF90AB000
:1021C00070BD254BDA6A9107E1D4DA6A002ADEDBBA
:1021D000DA6A5200DBD55A69B16942F480725A61F9
:1021E000BFF34F8FBFF36F8F5A6931F8021C22F48F
:1021F00080725A61BFF34F8FBFF36F8F4DF602723B
:10220000914209D09A6AD2B242B101200DF1070180
:10221000FFF75CFF0446BBE73468B9E79A6A12F43B
:102220007F4F05D001200DF10701FFF719FFF1E7FE
:102230009B6AB3F5803FAAD3FFF7E4FEEAE70020EC
:102240000DF10701E4E700200DF10701EDE723F4AC
:10225000FF7323F00103ADE700ED00E0044B5A6982
:1022600042F010025A615A6942F480625A61704722
:1022700000ED00E0EFF30880EFF3098101B572464D
:10228000FFF760FF01BD00BF002320210348C218F3
:102290000133452B82F80013F9D1704700E100E0CB
:1022A000002080F31488BFF36F8F002080F30A882A
:1022B00080F30B88FFF770FD00200E490860BFF324
:1022C0004F8F0D4880F3088800F03EF8202080F3FF
:1022D00011880A484FF40061401880F30988EFF331
:1022E00014800221084380F31488BFF36F8FFFF737
:1022F00029FE000094ED00E0B8780020B8480020E6
:10230000BFF34F8F0549064BCA6802F4E0621343DE
:10231000CB60BFF34F8F00BFFDE700BF00ED00E0D3
:102320000400FA05002318460649D1F89020C2F3AC
:102330000722934200DB7047C1F89830C1F8A00033
:102340000133F6E700ED00E010B572B6002484F327
:102350001388FFF7E7FF23464FF0FF300C4A03F1E5
:1023600020010133102B42F82100F8D100234FF057
:10237000FF30074A03F160010133102B42F82100BE
:10238000F8D162B6BFF34F8FBFF36F8F10BD00BFA0
:1023900000E100E00121024B024A034800F0DCB8F2
:1023A0000000072000200020DC89000010B50C7A16
:1023B0000B6804F01F0223F01F031A43CB68640963
:1023C00023F01F03054943EA440343F00103C1F826
:1023D0009800C1F89C20C1F8A03010BD00ED00E0CD
:1023E0002DE9F04F0F46144606464FF000084E4DBB
:1023F00085B0B84580F29480D6F80490B9F1000F0A
:1024000036D0B9F11F0F40F2898019F01F0F40F04C
:102410008580D6F800A01AF01F0F7FD1504603F038
:10242000EBFF834609EB0A00013803F0E5FF834523
:1024300074D11BF1160F71D05C456FDDC5F898B0F3
:10244000D5F89C10C5F898B0D5F8A03021F01F0140
:1024500043F01F0AD6E900321A44994202F1FF39CB
:102460001ED1CA4508D131465FFA8BF003F0CDFF8B
:1024700008F101080C36BCE73146C5F898B0D5F82C
:102480009C3022F01F0203F01F031343C5F89C3059
:10249000E0B203F0BAFF10F1160F3FD0441CE7E79B
:1024A000C5F898B0D5F8A020013B23F01F0302F037
:1024B0001F021343CA453146E0B2C5F8A030E8D048
:1024C00003F0A3FF10F1160F28D0C5F898B0D5F887
:1024D0009C209DF808300AF1FF3A62F304038DF85E
:1024E0000830D5F8A0309DF808205B0863F3471248
:1024F0008DF80820D6E900321344009323F01F031F
:10250000411C5344A3EB0903C8B223F01F0307285F
:10251000039303D86946FFF749FFBFE76FF015043F
:10252000204605B0BDE8F08F00ED00E00522044B29
:10253000C3F89420BFF34F8FBFF36F8F704700BF76
:1025400000ED00E0BFF35F8F0022024BC3F8942040
:10255000704700BF00ED00E010B5034C2278FFF794
:102560003FFF207010BD00BFAE48002038B50E4DB3
:102570002C68082C15D80020FFF7E4FF0B4B0C4A01
:10258000C3F8C020844205D10A4B00201C70FFF71D
:10259000CDFF38BD696801EB0011FFF707FF01307F
:1025A000F0E74FF0FF30F4E7E889000000ED00E0CD
:1025B000AAFF4400AE480020014B1860704700BFDE
:1025C00010200020084B70B5C31A0D4607499B1018
:1025D000044659434022064803F095FF2B46014626
:1025E0002046BDE870401847702E0020B76DDBB65E
:1025F00018860000402373B50B4C0093041B0B4658
:102600000D460A49A41061430646094A094803F0E9
:10261000A6FF011E05DA30462B4602B0BDE8704029
:10262000184702B070BD00BF702E0020B76DDBB63A
:10263000CF6500001886000010B54FF02003EFF3BF
:10264000118483F31288BFF36F8F074A136823F056
:102650000201DB07116002D4012005F00AFF84F3B8
:102660001188BFF36F8F10BD102F00202DE9F843A4
:102670000022012106460520FFF74AFC114802F01E
:1026800081F8114B984219D105F082FE00244FF0D9
:102690001C090C27DFF834803569414609FB0450DA
:1026A00003F08EFD002807DB012307FB04551C44C3
:1026B000042CAB67F0D10020BDE8F8836FF0040074
:1026C000FAE700BF052700000000AD0B108A0000EC
:1026D00001460C2300224B4370B50848C4187833D8
:1026E0001844D4E91C56226703F0FAFE2DB1324695
:1026F0002B46BDE870400248184770BD702E002080
:1027000018860000062812D8DFE800F0040F111127
:10271000110D0B00064B986F10F0070007D1FFF763
:10272000D7BF0220FBE70320F9E70120F7E7704756
:10273000702E002008B54FF02003EFF3118183F3D2
:102740001288BFF36F8F124A136843F002001060C3
:10275000DA0708D481F31188BFF36F8FBDE8084012
:10276000012005F027BE4FF05023D3F80C24D3F8F6
:102770000C34DB07EED5074803F0B2FE81F3118875
:10278000BFF36F8FBDE808400020FFF7A1BF00BF77
:10279000102F0020E82E00202DE9F84301220746E3
:1027A0003449D1E8EF3FC1E8E02F0028F9D133B92F
:1027B000314932484B60CB608A6003F014FD7B1EC8
:1027C000012B2DD8012F07D14FF05023D3F81C3403
:1027D00003F00303022B23D005F0DFFE054608BB00
:1027E000274B1B78F3B14FF0502302220646C3F863
:1027F00008234FF050244FF00008DFF88890D4F8F9
:102800001824D4F81834D20316D503F00303022B8E
:1028100001D0012F10D13DB386F31188BFF36F8F24
:10282000BDE8F8834FF02003EFF3118683F312889D
:10283000BFF36F8F0125DCE73046FFF727FBD4F8A5
:102840001835DBB2012BDAD1D4F80421002AD6D016
:10285000C4F80481D4F804210222C4F818252022E7
:10286000C9F88021A360CAE74FF050230222C3F8C1
:102870000423D5E76C2E00205C2E00208C2E002037
:10288000B448002000E100E008B5074805F066FE06
:1028900038B10648FFF790FE0448FEF783FE00209B
:1028A00008BD6FF01200FBE754860000B12800005D
:1028B0000A2838B50446074D04D1AB680D212846D7
:1028C0005B689847AB6803485B68E1B2984720466D
:1028D00038BD00BF5486000000F1744000F5A6002A
:1028E0000A289ABF024B33F910006FF00F007047AF
:1028F000508D0000024B0B6001231360704700BF36
:10290000E48A000000487047688A00000C4B10B54C
:10291000994204460FD14FF02003EFF3118083F367
:102920001288BFF36F8F237833B10023237080F3B5
:102930001188BFF36F8F10BDFFF7A8FAEBE700BF58
:102940000000AD0B38B5044600694178A9B90C4DBB
:1029500003F064FE2B785BB902460A49606802F016
:102960007BFDFFF7B9FFB0FA80F301465B092B70DE
:10297000206903F04BFE084638BD0021FBE700BF8D
:10298000B14800200566000038B504460069437868
:10299000ABB903F043FE0A4D02F0D6FDA84209D1BF
:1029A00002F0F4FD0022074B20691A70BDE83840A0
:1029B00003F02CBE4CF2503005F0CBFDECE738BDF7
:1029C0000000AD0BB14800202DE9F84F0D1E8046E8
:1029D0001746D0F8049066DBD9F82830AA189A4236
:1029E00061D8C5F30B02002F5DD0C7F30B0313436F
:1029F00059D1FFF7A7FF044648BB0146404603F004
:102A000050FE044618BBD8F8100003F007FEDFF8AC
:102A10009CA0D9F82830BB421FD105F096FDBB46DB
:102A200006463146D8F81000FFF770FF56452AD108
:102A3000B7EB0B075D44ECD1D8F8100003F0E6FDCE
:102A40000121404603F02DFE002C08BF04464046FD
:102A5000FFF79AFF2046BDE8F88FB7F5803F09D30E
:102A6000ABB2ABB92946012002F0DEFD4FF4803B4A
:102A70000646D6E7B7F5805F0AD20D49D8F81000B0
:102A8000FFF744FF0A4E3046FFF726FF0446D3E720
:102A9000C5F30B000028F0D1294602F0C5FD4FF424
:102AA000805B0646BDE76FF01504D3E70000AD0B71
:102AB0000400AD0B2DE9F34705460F461E46904630
:102AC000002A00F08580002B00F08280042B01D9C1
:102AD0009A077DD1BB077BD1002F6A6878DB926AA9
:102AE000BB19934274D82846FFF72CFF044698B9C7
:102AF0000146284603F0D5FD0446286903F08EFD03
:102B00008CB1286903F082FD0121284603F0C9FD3C
:102B10002046FFF7E1FE04462846FFF735FF204632
:102B200002B0BDE8F087032E1ED804213A460DEB13
:102B3000010005F007FD044601462869FFF7E6FE9F
:102B4000254B9C4235D13246414601A803F0A8FCF2
:102B500004213A460DEB010005F0F1FC0446014664
:102B60002869FFF7D3FE24E008F06043B3F1005F6B
:102B700002D118F0030F27D0DFF85CA0042EB14675
:102B800028BF4FF0040941464A4601A803F088FCDB
:102B90003A46494601A805F0D2FC04460146286998
:102BA000FFF7B4FE544504D1B6EB0906C8444F44C0
:102BB000E4D1286903F02AFD0121284603F071FDC4
:102BC000002C08BF0446A3E73A4631464046C3E717
:102BD0006FF01504A3E700BF0000AD0B2DE9F04F27
:102BE000074688461C46164685B0002A00F09980A4
:102BF000002B00F0948000294268C0F29280926A13
:102C0000CB18934200F28D80FFF79CFE054600280A
:102C10007ED1C8F1000505F00305386903F0FEFC1C
:102C2000A54228BF2546734203F0030306F00309BB
:102C300058BFC3F10009C9F1000909F00309A14512
:102C400028BFA146631BA4EB090424F0030423F06E
:102C5000030AA245C8BFA24603F0030BC8BFA3EBFB
:102C6000040BBAF1000F18D006EB090308EB0502BC
:102C700051461846019305F065FC04460146386943
:102C8000FFF744FE284A94423BD14D4505D0019BB5
:102C900052461946701903F0ECFBBDB1C5F10409A9
:102CA0000421A8EB090202A805F04CFC04460146E9
:102CB0003869FFF72BFE1C4B9C4222D109F1080317
:102CC0002A4630460DEB030103F0EAFBBBF1000F8F
:102CD00016D0082108EB050252440DEB010005F067
:102CE00031FC044601463869FFF710FE0E4B9C424A
:102CF00007D10AEB05005A4602A9304403F0D0FB85
:102D0000094C386903F082FC2046FFF7E5FD0546D3
:102D10003846FFF739FE284605B0BDE8F08F1D465E
:102D2000F9E76FF01505F6E70000AD0BF0B5436865
:102D300087B01D6B04460021284603AA03F0DAFD84
:102D4000002866DB039B2A681979186800F020FACE
:102D500000285EDB4FF050270125002201212B20A7
:102D6000FFF7D6F86668226930463D49C7F8B8557E
:102D700002F072FB0223C7F8B835FFF7ADFD00285B
:102D800047DB0022AB23204603A9CDE903220592AD
:102D90008DF80C3003F04AFC00283ADB232005F0C4
:102DA000D8FB737F023BAB4205D9357F033D012D34
:102DB0008CBF00250125204603F088FC002828DB75
:102DC000C2B2C0F38010854201AD24D12046FFF786
:102DD000DBFD03260023CDE9026304939F232046F5
:102DE000CDF804D08DF80C300595FFF7ABFD024609
:102DF00078BB204603A903F019FC05462046FFF7DF
:102E0000C3FD4DBB6068324669462C3003F021FBA0
:102E100010BB07B0F0BD002382F04002ADF80030D7
:102E20008DF800200122204603A9CDE90223CDF828
:102E300004D005938DF80C20049503F0F7FB0028CF
:102E4000E7D1204603F042FC0028E2DBC307F8D4B8
:102E5000BCE72046FFF798FD6FF01200D9E700BFEE
:102E600005660000024B0B6001231360704700BF32
:102E7000142F002000487047008B000010B505F0AB
:102E800058FB034C206005F051FB6060002010BD32
:102E9000142F0020F8B50E461946304617461D4639
:102EA00003F02FFCB8B146EA050414F0030412D174
:102EB0004DB12B19032BA6EB040006D8074AD2F814
:102EC0000034DB07FBD50020F8BD3B1B196802F07E
:102ED000C5F8043CEDE76FF01500F5E700900350EE
:102EE00030B5406801F01F04057BB2F5001F85B0C6
:102EF00044EA451405D1204601F046FF002005B004
:102F000030BD0025B2F5800FCDE9025514D1B3F1E3
:102F1000007F0CBF042305238DF8083000232046D2
:102F2000194602AA01F052FD224B98423CD10121E0
:102F3000204601F0DDFEE1E7B3F1C06F27D0B3F129
:102F4000007F14BF012302238DF80830836823FA21
:102F500001F111F00101E1D1B2F1A07FDED104F065
:102F60001F03620903F1800313D0012A1FD1124A03
:102F700052F82330DB07D1D40DF10705294620464E
:102F800001F060FE0D4B984205D00395C6E7032380
:102F9000DAE70B4AECE7284601F0A4FE054B98421D
:102FA000F3D06FF00B00AAE76FF01500A7E751F818
:102FB0002330FFDE0000AD0B002884500400AD0B71
:102FC0000025845010B501F07DFE044668B901F07B
:102FD00051FE084B98420AD12146074801F02CFEC9
:102FE000224605210D20FEF793FF002010BD6FF053
:102FF0000400FBE70000AD0BFD2F00004209034673
:1030000070B502D0012A17D070BD0D4E32695168DB
:103010000029F9D0012503F01F030C689D40002909
:10302000F2D08A682A4002D030464B6898472CB1CB
:10303000236821461C46F2E7024EE7E72346F8E7FD
:10304000408600002C8600002DE9FF41476801F012
:103050001F053B7B144645EA43150E4628460DF1F5
:10306000070101F0EFFD14F4403F80460DD12846E2
:1030700001F0B0FE3C4B984503D19DF8070001F0EC
:103080002BFE002004B0BDE8F0810023284619463D
:1030900002AACDE9023301F099FC334B984214D1D6
:1030A000804503D19DF8070001F016FEA3034CD51F
:1030B00040F206332340B3F5837F1AD00DD8062B98
:1030C00018D005D8B3B1022B32D06FF01500D9E774
:1030D000B3F5807FF9D101230CE040F20222934244
:1030E00028D0B3F5407F27D0B3F5007FEDD1022380
:1030F00000E007238DF8083084F48033C3F30043E5
:10310000E0068DF809304CBF0323C4F340132103BC
:103110008DF80A3012D501237A68B34093600022FB
:10312000284602A901F00AFD0F4B9842A9D0CCE72E
:103130000423DFE70523DDE70323DBE7620341BF69
:1031400001237A68B340D360E9E7E3064FF0000358
:103150004CBF0324C4F340141A46284602A98DF834
:10316000084001F033FCDFE70000AD0B036803F01B
:103170001F025B09026004D0012B034818BF002026
:1031800070470248704700BF0028845000258450D3
:103190002DE9F04F154682464FF00108DFF878918F
:1031A00085B000EB8101514503D1002005B0BDE899
:1031B000F08FDAF8003003F07F04C3F343277F2C4D
:1031C0004FEA134308BF4FF0FF34222B00F2A180D7
:1031D000DFE803F012222A422D34429F9F9F9F4531
:1031E000719F9F9F9F9F9F9F9F9F747F82859F9F9F
:1031F0009F888E9194979A00C5F80C45601C1AD050
:1032000003A80394FFF7B2FF0126039B08FA03F318
:1032100083604FF0010B2BE0C5F81445631C0AD006
:1032200000264FF0000B23E0C5F80845E6E7621CD6
:10323000C5F808456BD10AF1040AB4E7631CC5F868
:103240000C45F8D0012603A80394FFF78FFF039BDA
:1032500008FA03F3C360DCE7C5F81045DEE7C5F8FC
:103260000845002FDAD1671CE5D000260627B346B3
:10327000DAF8003003A803F40052002A1CBF01262C
:103280004FF0000B01930394FFF770FF039A019B2B
:1032900000EB8200D0F80022C3F3C1143B0243EAE2
:1032A000840343EA0B0302EA0902134343EA460399
:1032B000C0F80032BFE7C5F80C45D2E7C5F8604555
:1032C000661CDAF80030B6D0C3F38033002BB9D0D7
:1032D00096E7C5F86445F3E7C5F86845F0E7C5F833
:1032E0006C45EDE7C5F82445621CA4D0012698E79B
:1032F000C5F8284582E7C5F83045F5E7C5F83445F7
:10330000F2E7C5F83845EFE7C5F83C45ECE700269D
:1033100099E76FF0850049E7F0F0FCFFF8B5044647
:103320000D46076905F039F990B92C4B1B787BB134
:103330006426606803F014FBE0B9012004F062FF2A
:10334000013EF6D1F4E786F31188BFF36F8FEFE704
:103350004FF02003EFF3118683F31288BFF36F8FD2
:103360006068314603F0FCFA90B986F31188BFF328
:103370006F8FEDE74FF02003EFF3118683F3128890
:10338000BFF36F8F6068314603F0EAFA0028DAD0A5
:103390003B691D70626838691368C3F844050120F1
:1033A000C3F848050020C3F82001D3F82051C3F822
:1033B00058015268D3F85801D20608D5082062682F
:1033C0001268C2F800054FF48002C3F804230122FA
:1033D0009A6081F31188BFF36F8FF8BDB448002065
:1033E000F0B54B79012B29D0032B24D110278B79F1
:1033F000032B20D1CE790EB1012E1CD10A79012ADE
:103400001ED0022A20D0B2B914460B684568B3F525
:10341000164FD5F800C06ED033D8B3F5165F6DD017
:103420001CD8B3F5966F6BD010D8B3F5967F6AD0E1
:10343000B3F5167F6AD06FF085005BE00027D6E712
:103440004FF480740E22E0E70024FBE7B3F5166F1B
:103450005FD0B3F5965FEED1384B3CE0B3F5E14F6A
:103460005AD007D8B3F5615F58D0B3F5964FE2D183
:10347000334B30E047F61225AB42DCD14FF400036A
:1034800029E0B3F5613F4BD013D8B3F5963F4AD04E
:1034900009D84DF6C025AB4247D0B3F5614FCAD12C
:1034A0004FF46B0317E0B3F5E13FC4D14FF0EB737A
:1034B00011E0B3F5612F3BD008D8224DAB423AD092
:1034C000B3F5E12FB7D14FF0E86304E01E4DAB42F6
:1034D000B1D14FF080530569CCF8243543683A43A5
:1034E0001B6834432243C3F86C252B1D03C983E8B2
:1034F00003000020F0BD4FF41D03ECE7134BEAE797
:103500004FF49E23E7E74FF4A033E4E74FF41C3376
:10351000E1E74FF41D23DEE70D4BDCE70D4BDAE767
:103520004FF06C73D7E70C4BD5E74FF46503D2E748
:103530004FF07063CFE74FF08063CCE700B013002B
:1035400000A04E0090D0030040420F000050270022
:1035500000C0750000F03A0000903A012DE9F743F1
:103560008046002201210820FEF7D2FC0820FEF749
:103570009FFC0021D8F80470D8F810603C6801AABC
:10358000C4F80015C6F80080D7F80C90484603F040
:10359000B1F9051E4CDB019BD9F800201979186898
:1035A000FFF7F6FD051E43DB4046311DFFF718FF10
:1035B000054600283CD17B68990712D506F1180012
:1035C00001F048F91E4B984236D1307E04F10C02CE
:1035D00004F5907104F022FE0120337E984001F042
:1035E000CBF80823C4F800353B7A53B9C4F810313E
:1035F000D4F810317369C4F834350123C4F8383570
:1036000023607B689A075CBF4FF48073C4F804336F
:103610007B68DB0644BF4FF48003C4F8043333698E
:10362000C4F844350023C4F848350123A360E3609F
:10363000284603B0BDE8F0836FF00405F8E700BF4B
:103640000000AD0B0123834070B5DC430B4AD2E888
:10365000EF1F01EA0405C2E8E65F002EF7D14FF440
:10366000803282400648C0F80823BFF35F8FBFF363
:103670006F8F0B4214BF0120002070BD382F002037
:103680000050015070B40E4922F07F46D1E9003459
:10369000D01AC31844F10004C1E90034A6F50013A0
:1036A000B3F5400F09D2074B1B681A0A1B069C1979
:1036B000054B42F10005C3E9004570BC02F0FEB8BD
:1036C000482100203C2F002050210020D9B10123A7
:1036D0000D4A8340D2E8EFCF4CEA030CC2E8E1CFB9
:1036E0000029F7D14FF48033084A8340C2F80433ED
:1036F000074BD3E8AF3FC340DB0742BF4FF4001294
:10370000044BC3F800217047382F002000500150AF
:10371000342F002000E100E00D4B1868010A00067C
:10372000BFF35F8F0B4BD3F80435181841F100013C
:10373000B3F5801F0AD2084BD3E90023904271EB06
:10374000030303D210F1807041F10001704700BF04
:103750003C2F002000500150502100202DE9F04F57
:1037600085B016461F4604469DF840A0FFF76AFF45
:103770000190FFF7D1FFB04271EB070352D23B4BF0
:10378000301A67EB0101984271F100014DD2384BBC
:1037900003EB0413D3E902239F4208BF964258D09B
:1037A0004FF48038334908FA04F8204626F07F4B5E
:1037B000C1F8488303F01DF94FF00309584604F19E
:1037C0005005AD00ADB205F1502504F5A87305F51F
:1037D00080350293029A20F07F4341F82230C1F8ED
:1037E0004483D1F80435244AC01A033820F07F40BE
:1037F00090422ED9286868B1D1F80435A3EB0B00AC
:1038000020F07F40B0F5000F039322D9204603F04B
:10381000F0F8039BBAF1000F07D109EB030009F19F
:103820000109D7E7BAF1000F09D06FF0150520465E
:103830000199FFF74BFF284605B0BDE8F08F012343
:103840000E4AA340D2E8EF0F1843C2E8E10F002967
:10385000F8D107490E982301C8500F9B01EB0412C1
:103860000025C2E902675360E1E700BF0100800064
:103870003821002000500150FDFF7F00342F002030
:103880007FB500254FF0FF304FF0FF31194C1A4B38
:103890000226C4F80833C4F84833184BC4F8085556
:1038A000C3E902014FF480334FF40012C4F804332B
:1038B000134B0121C4F804631520C3F880212A4664
:1038C000FEF726FB1520FEF7F3FA01230D4AA3604D
:1038D000236013600C4B0D4A009328460023CDE96A
:1038E0000155FFF73BFF3046FEF756FF284604B070
:1038F00070BD00BF0050015003000F0038210020B0
:1039000000E100E0382F002085360000FFFF7F0037
:103910002DE9F7432E4BD3F8042390070BD5D3F8AA
:10392000042142B10022C3F804212A4AD3F8043109
:10393000136801331360264AD2F80433D90327D51C
:10394000254BD3E8EF1F21F00100C3E8E40F002C62
:10395000F7D1CB0702D4D2F84031CBB100251C4CB3
:10396000C4F84051D4F84031FFF7D6FE4FF02003A1
:10397000EFF3118283F31288BFF36F8F174BD3E9F4
:103980000267B042B94106D282F31188BFF36F8F4C
:1039900003B0BDE8F0834FF0FF38D3E900104FF0DB
:1039A000FF391D60C3E902894FF48033C4F84833FE
:1039B000C4F84051D4F8403182F31188BFF36F8FBF
:1039C0000029E5D0009032463B4628468847DFE78D
:1039D000005001503C2F0020342F002038210020BF
:1039E0001FB5431C22D0012822DD124A124B9042FF
:1039F000D4BF04461C46FFF78FFE104B0E49D3E997
:103A00000023801AB0F5000F28BF002404448C4224
:103A100028BF0C4600200A49A218CDE901000091F8
:103A200043F10003FFF79AFE04B010BD024CE2E739
:103A30000124E0E7FEFF7F00FFFF7F004821002018
:103A40008536000008B5FFF767FE024B1B68C01AF9
:103A500008BD00BF48210020012310B5074C1520E8
:103A60006360FEF733FA4FF40012054BC4F80833D5
:103A7000C4F84833034BC3F8802110BD00500150F7
:103A800003000F0000E100E040EA0103C3F30D036F
:103A900030B58BB940F21515094C890BC0F387304E
:103AA000994201D1002030BDC218D2B202F5C072D5
:103AB00044F822500133F3E76FF01500F3E700BF3D
:103AC000003000504FF0005318680A4B98420DD058
:103AD00003F11C53A3F58B13A3F6CC53984207D0E4
:103AE000054B98420CBF0120022070470020704710
:103AF00003207047B6B3B4B55DCE03F12DE9F041B4
:103B00004FF0502315460122C3F81426002858D040
:103B1000002956D04FF0005302F13642A2F14B1269
:103B2000A2F59842C3E900204FF408429960DA6098
:103B3000FFF7C8FF4FF47F03D3F830210646072A6A
:103B4000D3F834312DD1023B032B02D81E4AD35C6B
:103B50003BB34FF050244FF0010800270520C4F874
:103B60001886C4F8147604F04DFB4046C4F8148659
:103B700004F048FBC4F81476C4F81876FDB1134C71
:103B8000204604F0E6FCFFF79DFF8642F8D00228AD
:103B90000F4B0CD100226FF00D00C3F84024BDE89C
:103BA000F0814FF050230022C3F81426E6E74FF0CF
:103BB00050220121C2F814160022C3F8402400202C
:103BC000EDE76FF01500EAE71794000040420F00A0
:103BD000003000501022034BC3F840240122FFF7AD
:103BE0008DBF00BF003000504FF48272014BC3F80C
:103BF000002770470030005030B5816885B010391B
:103C000021F00704054602F0B8FB10220146684681
:103C100002F051FC10226846064902F041FC1023D4
:103C20006A462146284602F078FB003818BF01207A
:103C300005B030BD668D000030B50D46816887B097
:103C4000102302AA1039044602F052FB002802DABF
:103C5000012007B030BD1022204602A902F0FCFE70
:103C600000283AD110221E4902A802F0F2FB0028D7
:103C70000CBF012302232B70204602F0D9FE012342
:103C800001460DF10702204602F032FB0028DFDB7F
:103C90009DF80730204603F00F021B096A702B7154
:103CA00001220DF1070102F0D7FE10B96B78042B49
:103CB00003D901236B7000232B71A2682046183AA8
:103CC00022F00702083AA91C02F0D9FE0028BFD151
:103CD0002046E91C02F02CFFBBE70323CBE700BF23
:103CE000668D0000F0B5354F85B046000546694643
:103CF00057F8260002F022FF044610B1FF2005B05D
:103D0000F0BD013657F8260002A902F017FF01287E
:103D100037D12A4649212A4802F0DCFA294B8DF88E
:103D20000C40029300229DF800609DF80870264C1C
:103D30003146207802F082FE50B33946607802F0B6
:103D40007DFE28B3A378042B03D09DF8031099427D
:103D50001ED1E378042B03D09DF80B10994217D1A4
:103D60002379042B10D16279022A1DD1174B1848F0
:103D70002A46492102F0AEFA6079831E022BBED991
:103D8000BCE70028CED0B9E79DF802109942EAD0EE
:103D90000132032A04F10604CAD10E482A464921F9
:103DA00002F098FA0120AAE7032A05D00A4B0B4932
:103DB000042A08BF0B46DAE7094BD8E78C8B0000D2
:103DC0004294000003010303D794000024940000F0
:103DD0008D940000B1940000299400003B940000F1
:103DE0001F940000014B1B68184700BF38200020BB
:103DF000014B1B68184700BF34200020024B18609D
:103E0000024B002019607047382000203420002029
:103E1000044B1A790AB1824201D1186870470833FD
:103E2000F7E700BF948B000001680E4A03469142F9
:103E300015D1C169A2F11022A2F1EF1291420ED167
:103E40008268012A0BD8C26812B101698A4206D081
:103E5000586928B19B691B1A584258417047012084
:103E6000704700BF55AA00FF70B50D4B9E68A6B104
:103E70003046FFF7D9FF044678B9F3686BB9356966
:103E80000DB9204670BD2846FFF7CEFF28B9EB6874
:103E9000B34202D12E462D69F2E70124F1E700BFBB
:103EA000402F00202DE9F8433F4F3C68D4B1BC6857
:103EB000C4B100284AD0002948D001FB00F5B5FB69
:103EC000F0F0884242D1281D40D8A9070DD025F036
:103ED00003060436FC6803E06368B34238D2A46981
:103EE000002CF9D12046BDE8F8832E46F2E7FB60AE
:103EF00041E006F120016318203A5A600022C3E92C
:103F000002242A4822691A6160502949D96102B104
:103F1000D36062695A61A1699961AAB193619A6992
:103F200002B153614FF0010923610023C4E9016923
:103F3000C4E905333B69DB072ED5FFF795FF58B37E
:103F40001C4B48461B6826E0FB60E8E70024C9E7F5
:103F5000A3681BB1174B01201B689847626804F1E6
:103F60002008921B232AC4D80123A360D4E9052387
:103F7000002ABCD09361A3690BB162695A61002326
:103F8000C4E905333B69DA0706D5FFF76DFF18B1C1
:103F90000120084B1B6898472A46002140464446AA
:103FA00002F089FA9EE700BF402F002055AA00FFCB
:103FB000669911EE3020002070B50546002800F00B
:103FC0008880444E3368002B00F08380B268002A5A
:103FD0007FD0834203D872681344984203D33E4B88
:103FE00001201B689847A5F120042046FFF71CFF1D
:103FF00018B1394B01201B68984755F8183C012B24
:1040000003D0354B01201B689847002345F8183C26
:1040100055F8143C3BB39A682ABB55F81C2C02F1A6
:1040200020015A680A445A6055E905321A6155F868
:10403000145C2B6903B1DD6020220021204602F0D0
:104040003AFA286910B18368002B2ED033699B0798
:104050003FD5FFF709FF00283BD0BDE870401E4B5D
:1040600001201B68184755F8100C00282AD08368D7
:1040700043BB426863681344203363600369236170
:10408000D4E905239AB9CBB9436963618269A26116
:10409000B3B19C61A36903B15C61236903B1DC60C6
:1040A0002022002102F007FAD0E72C46E1E79361D5
:1040B000A369002BE8D062695A61E5E7F360F7E78E
:1040C000F460E7E7F36845F8083C03B15C61F4602D
:1040D000BCE770BD402F00203020002038B50C46D2
:1040E000142200210546134802F0E5F9124913484D
:1040F000FFF784FE232C1CD915F003031FBF043CDB
:10410000E418C3F10403ED1822460021284602F00A
:10411000D2F9084B0A49C3E90054203C9D606C6009
:104120009A6811609A68A1F11021A1F1EF11D16193
:10413000DA6038BD402F0020B93F0000A53E0000E6
:1041400055AA00FFF8B500F1080647680446304656
:104150000D4602F077FE87424BD16368B3F5807F4E
:1041600047D80021304602F065FF002841DD0021DC
:10417000304602F053FEE0B345B9294604F114007D
:1041800002F058FF002834DD0020F8BD04F12C05B2
:104190000021284602F04EFF00282ADD0021284693
:1041A00002F03CFE28B304F138050021284602F055
:1041B00041FF00281DDD0021284602F02FFEC0B17E
:1041C000002104F1140002F035FF002811DD002168
:1041D00004F1440002F02EFF00280ADD002104F162
:1041E000500002F027FF002803DD002104F15C00ED
:1041F000C6E70148C9E700BF80BFFFFF012938B506
:104200000546144601D0074838BD22B901230020D5
:10421000C5E92934F8E71046FFF7FAFD0028F5D183
:10422000F1E700BF00BFFFFF70B500210446FFF7B4
:1042300089FF054610B10E4D284670BD04F10806F1
:10424000304602F0FBFD7F28F5D91434294620467C
:1042500002F0E4FD0028EED0204602F0EFFD012838
:10426000E9D93146204602F0A4FE0028E4DBE2E76B
:1042700000BEFFFFF0B50C4687B00021054616468C
:10428000FFF760FF002839D103A802F01FFD214687
:104290006A6803A802F0DCFD044618B103A802F026
:1042A0001BFD0CE005F10804214603A802F081FE85
:1042B000002807DB03A802F00FFD6FF00304A4F54C
:1042C000854418E005F1680303A96F680846009368
:1042D00005F11402234603F087F904460028DDD1D6
:1042E0003A46314603A802F0C9FD044603A802F08D
:1042F000F3FC002CE3D1204607B0F0BD004CFAE7F8
:1043000080BFFFFF012903462DE9F04143D8234A2E
:10431000002918BF9046224A224F18BF964602F144
:10432000794202F5740202F5016218BF94461E4AF2
:104330001E4818BF17461E4A1E4E18BF164602F1E9
:10434000D14208BF804602F5C0121B4802F51E622A
:1043500008BF8646194D1A4818BF1546194A08BFA6
:104360008446194C194818BF1446A2F11162A2F5EF
:104370000C22A2F28E2218BF02460020C3E9028E50
:10438000C3E90000C3E904C7C3E90665C3E90842FD
:104390009966BDE8F0816FF07300FAE7D89E05C119
:1043A00007D57C363AF54FA539590EF767E6096A05
:1043B000310BC0FF7F520E5185AE67BB8C68059BE9
:1043C00072F36E3CA78FF964ABD9831FA44FFABE7A
:1043D0002DE9F04FD1B00DF58E7B5A46031D0193A8
:1043E00000F124030393019B53F8040F42F8040FD8
:1043F00003989842F8D1DDE948074FF000094F9B38
:104400004CAD0293DDE94AE30493424B06AA0593BF
:1044100095E82011B9F10F0F63D84C780B7824047C
:1044200044EA0364CB7823438C7843EA04234FEABD
:10443000F52A8CEA0804059E8AEAB51A2C408AEA15
:10444000756A84EA0C04544456F804AB93605444EF
:104450002344029C4FEA703A234440EA070405963D
:104460008AEAB00A04EA0E0400EA07068AEAB05AA9
:104470003443544409F10109DDF810A0B9F1400FAB
:104480009A4402F10402234401F10401CDF808C06A
:10449000CDF810E01ED1CDE90634CDE94E8CCDE942
:1044A0004CA5CDE94A7ECDE94830019A52F8043F47
:1044B00001925BF8042F1344019A1360039B93420B
:1044C000F3D106A84FF4947101F0BEFA002051B068
:1044D000BDE8F08FBE46C4460746A8461846554676
:1044E00098E7136852F8384C4FEAF34A8AEA734A5D
:1044F0008AEA932A52F8143C52F8346C234452F856
:10450000344C53444FEAB44484EAF61484EAD604A3
:1045100023448CE7AC8B00004FF47F03D3F83021A9
:10452000D3F83431072A05D1023B032B02D8024AC3
:10453000D05C704700207047F194000008B5FFF789
:10454000EBFF58B1644BD3F8202A3AB90D21C3F8D8
:10455000201A0121C3F81C19C3F81C290022D3001A
:1045600003F57F03D3F80013013107D0D3F800130C
:104570000132D3F80433202A0B60F0D1FFF7CCFFCF
:10458000002840F0A080FFF7C7FF40B1534B544ACA
:10459000C3F830254FF050230122C3F858254FF4BB
:1045A0007F03D3F83021D3F83431072A09D1023BF5
:1045B000032B06D84B4AD35C1BB100224A4BC3F8ED
:1045C0004C25FFF7A9FF50B14FF05023D3F800243A
:1045D000D10742BF0022C3F81421C3F818214FF4B9
:1045E0007F03D3F83021D3F83431072A09D14FF0B3
:1045F0005023D3F80024D20744BF6FF00102C3F860
:104600000024FFF789FF18B16522334BC3F80C274C
:104610004FF47F03D3F83021D3F83431072A16D171
:10462000314BD3F82034002B11DA4FF05023032202
:10463000C3F8182501229A60D3F80421002AFBD080
:104640000022C3F804210122DA60C3F818254FF4D0
:104650007F03D3F83021D3F83431072A23D1023B2A
:10466000032B02D8214AD35CEBB17E221A4B1B49A3
:10467000C3F80C27C3F83C297F231D4AC2F8183120
:104680000023C1F8043EC1F8083E01F54821C1F8F5
:104690001031C2F82431C2F82C3102F5FF1202F5B4
:1046A0008052C2F8A032134AD2F88C3043F44063EF
:1046B000C2F88C30104A114B1168C3F84415D26906
:1046C000C3F84C2508BD2922034BC3F80C2703224D
:1046D000C3F83C2757E700BF00400050009003504C
:1046E0004400EFBEED94000000200350E994000068
:1046F0000020005000ED00E00080FF00006000504E
:1047000030B50468ACB1B4FA84F30122C3F11F03DD
:10471000DBB29A4024EA0202D0E8EF5FA54204D15E
:10472000C0E8EC2FBCF1000FF6D1EAD102480B70C3
:1047300030BD0248FCE700BF0000AD0B0200AD0B2E
:1047400010B50368CB40DB0710D401238B4002680F
:1047500043EA0201D0E8EF4F944204D1C0E8EC1FD5
:10476000BCF1000FF6D1F2D1014810BD0148FCE7C1
:104770000000AD0B0400AD0B014BC3F804057047FE
:1047800000700150044B1A7922B9012218601A7185
:104790000248704702487047542F00200000AD0BBC
:1047A0000C00AD0B4FF0502310B5D3F8002152B1DF
:1047B0000020C3F80001D3F800210122C3F8082328
:1047C000234B1B6898474FF05023D3F8042182B144
:1047D0000022C3F80421D3F80421D3F81824D3F815
:1047E0001824022102F00302012A28D1C3F8181567
:1047F0009A604FF05023D3F8202162B10022C3F811
:104800002021D3F820214FF48072C3F80823104BE5
:1048100005201B6898474FF05023D3F82421AAB1F4
:104820000022C3F82421D3F824214FF40072C3F8E6
:104830000823074B0620BDE810401B681847C3F843
:104840000813034B01201B689847D2E710BD00BF37
:10485000542F002001460148FFF752BF402000209E
:10486000036803F01F025B09026004D0012B0348B8
:1048700018BF002070470248704700BF00288450CE
:1048800000258450034A4309D35C00F01F001844FC
:10489000C0B270470A95000008B5FFF7F3FF034B5D
:1048A000083033F81000C0F3401008BD4420002049
:1048B00008B5FFF7E7FF034B083033F81000C0F3EB
:1048C000400008BD4420002008B5FFF7DBFF034B84
:1048D000083033F81000400B08BD00BF4420002012
:1048E00070B50546FFF7CEFF0C4C083034F8103099
:1048F0000E46DA0508D5C3F3432304EBC30228466A
:1049000054F8333052689847A3682BB13146284693
:10491000E268BDE87040184770BD00BF4420002029
:1049200010B5FFF7AFFF124A083032F81030D90542
:104930001CD5C3F3432123F4F85322F81030002090
:1049400002F10E0434F8023F13F4807F03D0C3F366
:10495000432399420AD001303028F3D1002342F892
:1049600031300448BDE81040FFF7EABE10BD00BF7B
:1049700044200020B820002001460020F0B5012589
:1049800006460F4A0F4C02F13043A3F551439B08F2
:1049900005FA03F3194204D0176817B116601768B7
:1049A00018430432A242EED1074BD3F87C2132B136
:1049B0000022C3F87C21D3F87C3140F00040F0BDE8
:1049C00000D1005020D1005000D000502DE9FF410F
:1049D000054690461E46FFF755FF044609B3284694
:1049E000FFF766FF18B12846FFF756FF28BB0023E4
:1049F0000DF10F02CDE900338DF80E308DF80F3038
:104A000028460B460DF10E0103F035FD474A04F12F
:104A1000080132F8113023F0020343F0010322F8B9
:104A20001130B8F1000F32D0284698F80070D8F84D
:104A30000410FFF73DFF10B1F1B13D4829E03B48BC
:104A400004F1080C30F81C3023F02003DB04DB0CED
:104A500020F81C3081B1032FEFD8D8F8042092F849
:104A600000E07246920002F1A04202F550429FB966
:104A7000C2F81075C2F810752C4A04F1080132F81A
:104A8000113023F01C0343EA870322F811301EBBC8
:104A9000284804B0BDE8F081D2F8101543EA4E333F
:104AA00021F00301C2F81015D2F8101543F02003CD
:104AB00021F44F3121F44071C2F81015D2F810855D
:104AC000290201F47C5141EA080141EA0741C2F898
:104AD000101520F81C30CFE72846D6E90076FFF7FE
:104AE0001FFF002FD4D0114DD5E90023974201D1EB
:104AF0009E4218D010480DF10F01FFF701FE0D4B3B
:104B00009842C6D19DF80F2005EBC20308345E60C1
:104B100035F8143045F8327043EA422343F4807389
:104B200025F81430B4E70022EEE700BF442000204F
:104B30000400AD0B0000AD0BB82000202DE9FF41B3
:104B400004461646FFF79EFE054631B32046FFF7A2
:104B5000AFFE20B92046FFF79FFE002863D1334FF8
:104B600005F1080837F8183013F01C0F02D04B7805
:104B7000012B58D001238DF80F3000234A1CCDE9BA
:104B8000001320468B1C0DF10F0103F074FC37F865
:104B9000183043F0030327F818301EB9244804B036
:104BA000BDE8F0812046FFF783FE00283BD096F851
:104BB00000C0002361461D4F05F1080037F8105072
:104BC000890025F0200501F1A041ED0401F55041D7
:104BD000ED0CC1F8103527F81050C1F81035727877
:104BE000002ADBD0D1F81035B67823F4991323F4DA
:104BF000F853C1F8103512042302D1F810E502F47D
:104C0000403203F47C531343320543EA0E0302F4AB
:104C1000801245EA4C35134345F02005C1F81035A4
:104C200027F81050BAE70348B9E700BF4420002036
:104C30000000AD0B0400AD0B014BC3E9020170474E
:104C40004420002010B50446FFF726FE50B1204650
:104C5000FFF718FE044B083033F8103003485B0BA5
:104C60000B7010BD0248FCE7442000200000AD0B93
:104C70000400AD0B70B50F4C94F87860BEB90E4DC2
:104C80006022314604F1100001F015FC0D20C5F83A
:104C90007C61D5F87C31FDF70BF94FF00043C5F886
:104CA00004330123054884F87830636770BD0448F5
:104CB000FCE700BF4420002000D000500000AD0BF6
:104CC0000500AD0B034B93F87800003818BF0120A6
:104CD000704700BF4420002001460148FFF730BD67
:104CE000B420002001460148FFF70ABDB42000208F
:104CF00037B50446FFF7D0FD08B32046FFF7D8FDCF
:104D00000546E0B92046FFF7DFFD03B29B0003F143
:104D1000A04202F5514203F1A043156003F5504350
:104D20001268D3F8102542F00102C3F8102521B112
:104D30000123134A8340C2F8043303B030BD204638
:104D4000FFF7A0FD0F4B083033F81030C3F3820398
:104D5000042B11D0052B11D001A80194FFF780FD81
:104D6000019B0169D94001F001010231204603B0E5
:104D7000BDE8304003F0C8BB0321F7E70221F5E7A7
:104D800000D000504420002010B50446FFF784FDF9
:104D9000C0B12046FFF78CFDA0B92046FFF794FD77
:104DA00001230B4A8340C2F8083303B29B0003F18E
:104DB000A04303F55043D3F8102522F00302C3F8B3
:104DC000102510BD2046BDE81040002103F09CBB1B
:104DD00000D0005073B50446FFF754FD1A4E00F1A1
:104DE000080536F81530DB072CD52046FFF7CCFF39
:104DF0002046FFF751FD68B12046FFF765FD002210
:104E000003B29B0003F1A04303F55043C3F8102500
:104E1000C3F810252046FFF783FD002301A826F8DC
:104E200015300194FFF71CFD019B00EB8300D0F8C7
:104E30000022064B134043F00203C0F8003204483E
:104E400002B070BD0348FBE744200020F0F0FCFFF7
:104E50000000AD0B0400AD0B2DE9F04F604B87B0A7
:104E6000D3F80403C0B240F00040FFF785FD051EF3
:104E700080F29980DFF86C91D9F820300493C9F85A
:104E80002030594B1A6A05921A624FF0000A0DF150
:104E90001008564B0AEB030B4CE093FAA3F3B3FA5A
:104EA00083F39BF80040019343EA44142046FFF744
:104EB000E9FC4F4B083033F810700120019B03943C
:104EC000DA0803F00703984018F80230B90823EA1B
:104ED000000308F8023003A8FFF7C2FC039BC7F3E6
:104EE0008206803350F823304A073746C3F3014324
:104EF0002CD520463946DEB2FFF7F2FC03A8039416
:104F0000FFF7AEFC039B803350F82330C3F301431B
:104F10009E4207D10021204603F0F6FA3146204692
:104F200003F0F2FA03A80394FFF79AFC0123039A13
:104F300093400362D8F80030002BAED108F104088A
:104F4000BAF1000F1DD14FF0010AA2E7022B0CD1DC
:104F50000321204603F0D8FA06F00503012BE1D126
:104F600039462046FFF7BCFCDCE7022120460193CE
:104F700003F0CAFA032EF3D0019B032BD2D1022EE9
:104F8000EDE74FF00040FFF7F7FCD9F82030164965
:104F90000493C9F820300A6A134305920A627FF429
:104FA00074AF25F00045012415B907B0BDE8F08FB6
:104FB00095FAA5F3B3FA83F304FA03F29B0003F125
:104FC000A04303F55043D3F81005D3F81015C0F3F0
:104FD0000520C1F3014125EA0205FFF781FCE3E763
:104FE00000D0005000258450002884501A950000FD
:104FF000442000200022034BC3F88425C3F8042575
:10500000704700BF00900350044AD2F80034DB0719
:10501000FBD50160BFF35F8F704700BF0090035066
:1050200008B5C0F30B0383B90222094BC3F88425EA
:10503000C3F804254FF0FF320260D3F80024D207F2
:10504000FBD5FFF7D7FF034808BD0348FCE700BFC7
:10505000009003500000AD0B0A00AD0B012208B513
:10506000054BC3F88425C3F80425FFF7CDFFBDE841
:105070000840FFF7BFBF00BF0090035070B500F0BD
:105080006044B4F1005F68D1840766D1354D95F86E
:105090003040012C01D09C4261D12C6804BB022B12
:1050A000314B0BBFC3F81025C3F80425C3F8140512
:1050B000C3F808050BBFC3F81815C3F80C15082270
:1050C00004220021C3F8001102F1A043012203F5DC
:1050D0002C331A60244AD2F80031002BFBD00DE0AB
:1050E000AE68214C66B1022BE8606961EA612DD19E
:1050F000C4F81025C4F81405C4F818151B4870BD71
:10510000022B85F830302961AA61A8600CBFC4F871
:105110001025C4F804254FF000020BBFC4F8140595
:10512000C4F80805C4F81815C4F80C1508BF0823FE
:105130000D4918BF0423C1F80021012203F1A04347
:1051400003F52C33C1F804231A60D7E7C4F804250B
:10515000C4F80805C4F80C15D0E70548CFE70548A2
:10516000CDE700BF5C2F002000B002500000AD0B67
:105170000A00AD0B0B00AD0B38B54CF25034064DA8
:10518000D5F8003133B90A2003F03CF8013CF7D1DF
:10519000024838BD0248FCE700B002500700AD0BE2
:1051A0000000AD0B084B9A685A621A699A629A69B4
:1051B000DA62DA689A6032B15A691A61DA699A6118
:1051C0000022DA60704770475C2F002000F01F0358
:1051D00040090FD001280FD10A4A02EB8302D2F80E
:1051E0000002094B034043EA012343F00203C2F8E3
:1051F00000327047054AF0E70022803352F823302E
:10520000FFDE00BF00288450F0F0FCFF0025845032
:1052100010B50E4B0238D3F83C26D3F838360728A1
:1052200013D8DFE800F0110F0D0B0A080604100E6A
:10523000C871100C8871100A48710A711A0ECA7070
:105240001A0C8A701A0A4A700B7010BD00B0025016
:10525000023807281FD8DFE800F02927251123216D
:105260001F04CB791B068A7943EA02434A7943EA51
:1052700002230A7913430E4AC2F83C36CB781B0648
:105280008A7843EA02434A7843EA02230A781343BE
:10529000074AC2F8383670470023E4E70023E5E701
:1052A0000023E6E70023EBE70023ECE70023EDE72C
:1052B00000B0025070B590F8253004461BB190F84C
:1052C0002620002A6BD16068FF2800F0B880A16812
:1052D000FF2900F0B480E268FF2A00F0B080256961
:1052E0000E2D40F0AC80112840F0A980122940F02A
:1052F000A6800D2A40F0A3806269FF2A02D00F2AFF
:1053000040F09D80A269FF2A02D0102A40F09780C9
:10531000BBB903211120FFF759FFA068FFF756FF23
:10532000E068FFF753FF2069FFF750FF6069FF282F
:1053300001D0FFF74BFFA069FF2802D00321FFF740
:1053400045FF94F8263053BB62683E4BFF2A08BFE6
:105350004FF0FF32C3F82425A268FF2A08BF4FF0A0
:10536000FF32C3F82825E268FF2A08BF4FF0FF325A
:10537000C3F830252269FF2A08BF4FF0FF32C3F877
:1053800034256269FF2A08BF4FF0FF32C3F8382581
:10539000A269FF2A08BF4FF0FF32C3F83C2594F8FA
:1053A0002530294D274E85F831300023C6F80031CD
:1053B00001233360FFF7E0FE244B984239D0236885
:1053C000C6F84035A37F617F227F9B0143EAC1037A
:1053D0001343E27F43EAC213C6F8443594F823200E
:1053E000D6F8443532BB43F440331649C1F844354E
:1053F0004FF4C063C1F84036D1F8002694F820304D
:1054000022F07F4222F0FF02134394F8212043EA66
:10541000026394F8222043EA426394F8232043EA8B
:105420000273C1F800362B6813B12B20FCF740FD46
:10543000074870BD23F4003343F48033D5E70548B3
:10544000F7E700BF00B002505C2F00200700AD0B53
:105450000000AD0B0400AD0B38B5114C94F8305082
:10546000E5B9C4E9001201210E4AC2F8081378B95F
:1054700000210122C4E902110A4B84F83020C3F84C
:105480000025C3F800111A60BDE83840FFF774BE6C
:10549000FFF710FF044B9842EAD038BD0348FCE701
:1054A0005C2F002000B002500000AD0B0500AD0BDA
:1054B0002DE9F04115461F4A044692F83020012A92
:1054C00035D111B14078FFF7C3FE012300271A4EF2
:1054D000DFF86880C6F80833C6F800713360FFF75C
:1054E0004BFE404502D11548BDE8F081C6F8007179
:1054F000A37862781B0343EA022322781343E278FD
:1055000043EA4233227943EA8233627943EAC2337F
:10551000C6F83436FFF730FE4045E4D0C6F80071D7
:105520001DB129466078FFF773FE0548DCE70548A2
:10553000DAE700BF5C2F002000B002500700AD0B7F
:105540000000AD0B0B00AD0B1FB500230C4A02A8E9
:1055500002920DF1070211468DF80730ADF80C30BC
:10556000FFF7A6FF074B984206D19DF8073013F0CE
:10557000010F054B18BF184605B05DF804FB00BFCE
:10558000050200010000AD0B0B00AD0B2DE9F84347
:105590002B20FCF79BFC214B214ED3F8342602F440
:1055A0004032B2F5803F04BF1E4AC3F834260122C0
:1055B000C3F808231A610022C3F80025C3F80021AC
:1055C00096F831202ABBD3F82405D3F82895C0B229
:1055D000D3F83085D3F83475D3F83855D3F83C4533
:1055E00002F0AAFF5FFA89F002F0A6FF5FFA88F0E6
:1055F00002F0A2FFEDB2F8B202F09EFFFF2DE4B27E
:1056000002D0284602F098FFFF2C02D0204602F07C
:1056100093FF002386F83030BDE8F88300B00250D5
:105620005C2F0020000103008B0721D1124A136870
:105630001BB192F83030012B1CD1042382F830309A
:105640000E4BC3F81C150021C3F82005C3F8001148
:105650000121D960106840B9D3F800110029FBD0AE
:10566000012382F8303006487047C3F80413FAE784
:1056700004487047044870475C2F002000B0025077
:105680000000AD0B0A00AD0B0B00AD0B10B5174BB6
:10569000D3F80021E2B10022154CC3F8002194F8A0
:1056A0003020032A15D0042A15D0022A04D1012360
:1056B00084F82030FFF776FDA36813B9012384F83E
:1056C0003030D4E9003100209847002384F820309E
:1056D00010BD0223ECE7032284F82020D3F81C2518
:1056E0006262D3F8203584F82830E5E700B0025034
:1056F0005C2F0020104B70B553F82040013053F858
:105700002060A64200D870BDD4E9003595B153B1F0
:105710002846984738B10028B8BF4042FF28A8BFA4
:10572000FF20EB681870EA68537843F00103537068
:105730000834E6E79847FBE7AC8C0000012208B587
:10574000084B03201A70FFF7D5FF00F01FF9042063
:10575000FFF7D0FFFAF766FE034A137B23F001033D
:10576000137308BDB44800205821002008B5034831
:10577000034A0021121A02F00CFF08BD3821002054
:10578000B848002008B50020FFF7B4FF184B03F518
:10579000006282F3088883F30A880025E023154C11
:1057A00084F82230E57725766576A57684F8205052
:1057B000636A43F4E023636284F82350FCF74EFDF0
:1057C000FCF74AFB4FF0FF33A362E362FCF7CEFE27
:1057D000FCF7E0FD02F0C1FE0120FFF78BFF022085
:1057E000FFF788FF2B462A4629460348FCF7D6FBDD
:1057F000B848002000ED00E03D57000008B506481D
:10580000064A0749121A02F0C6FEBDE80840054ADA
:105810000549064802F0BFBE0020002034210020C8
:105820005C950000000000005C9500000020002056
:10583000034B1B680BB9FEF705B90020704700BF8A
:10584000902F002010B50E4B1C689C4204D1FFF72E
:10585000EFFF6FF0004010BDFFF7EAFF002CF8D01B
:10586000D4E904321B1A62EBE072B3F1004F72F11B
:105870000001EEDA002AACBF18460020EBE700BFBB
:10588000C020002030B570B10B4B5B6898420AD045
:10589000036843B1D3E90421D0E90445121941EB6F
:1058A0000501C3E90421D0E9003213605A600023E6
:1058B000C0E9003330BD00BFC02000202DE9F84F03
:1058C0004FF02003EFF3118C83F31288BFF36F8F37
:1058D000DFF8ACA0DFF8AC900024C9F80000DAF8DB
:1058E00000000025504508BF0020274FE046D7E9BB
:1058F0000021D9F8003080B3D0E9046C4FEAE37E90
:10590000B3427EEB0C0B05DAF61A6CEB0E04C0E921
:10591000046422E0B21841EBE671C0E90445C7E92E
:105920000021FFF7AFFF88F31188BFF36F8F836803
:1059300098474FF02003EFF3118883F31288BFF3E9
:105940006F8FD9F80030DAF800009B1B5045C44631
:10595000C9F80030CAD1D7E9002100249A1841EBD8
:10596000E373C7E90023C9F80040FFF76BFF214646
:10597000FEF736F888F31188BFF36F8FBDE8F88F14
:10598000C0200020902F0020D8210020014800F0E6
:10599000BABB00BF3495000010B50A4C23681BB198
:1059A00001232360002010BD00F058F80028F7D034
:1059B0000138072803D8044B53F8200010BD0348D2
:1059C00010BD00BF942F0020C48C0000FE8FFFFF8D
:1059D000BFF34F8F0549064BCA6802F4E0621343D8
:1059E000CB60BFF34F8F00BFFDE700BF00ED00E0CD
:1059F0000400FA0530B44FF0FE3200250B4B0C4C7E
:105A00000C494968C3F80024C3F80424C3F80824E7
:105A1000C3F80C24C3F81024C3F81424C3F81824C2
:105A2000C3F81C24C4F8005530BC0847005084500B
:105A300000408450C8200020024BD0E90012C3E986
:105A400000127047C820002038B131B10022014453
:105A50000346013088421A70FAD1704708B500F049
:105A600011F830B900F010F838B9054AC2F80C0A3C
:105A700008BD00F037F8032008BD042008BD00BFB2
:105A8000005084500020704710B5114800F048F8CD
:105A900000B110BD0F4800F043F80028F9D10E4CBA
:105AA000204600F03DF80028F3D10C4B0C481C6058
:105AB00000F036F801460028EBD100F02DF804463E
:105AC00008B1204610BD00F03FF82046FAE700BFBD
:105AD000E0200020DC200020D8200020D020002062
